S01400004C656420426C696E6B696E672E73726563AD
S11300000C942A000C9434000C9434000C943400A6
S11300100C9434000C9434000C9434000C9434008C
S11300200C9434000C9434000C9434000C9434007C
S11300300C9434000C9434000C9434000C9434006C
S11300400C9434000C9434000C9434000C9434005C
S11300500C94340011241FBECFE5D8E0DEBFCDBF21
S11300600E94B0000C9418010C940000613029F433
S1130070E82FF0E08FEF81830895E82FF0E01182FC
S11300800895413069F4E82FF0E0218181E090E0A7
S113009002C0880F991F6A95E2F7822B8183089525
S11300A0E82FF0E0218181E090E002C0880F991FE1
S11300B06A95E2F78095822381830895E82FF0E022
S11300C0828121E030E002C0220F331F6A95E2F7FB
S11300D02095282322830895E82FF0E0828121E0EF
S11300E030E002C0220F331F6A95E2F7282B2283E7
S11300F00895E82FF0E06283089541110EC0E82FBF
S1130100F0E0228181E090E002C0880F991F6A9597
S1130110E2F78095822382830895E82FF0E022811C
S113012081E090E002C0880F991F6A95E2F7822B64
S113013082830895E82FF0E08081882359F081E0DC
S113014090E002C0880F991F6A95E2F7892B21F489
S113015080E003C080E001C081E0811181E0089566
S113016061E089E30E94360041E064E083E30E9499
S1130170410040E060E080E30E94410061E086E3EA
S11301800E94360041E061E089E30E947D0064E062
S113019083E30E945E002FE986E891E021508040CD
S11301A09040E1F700C0000064E083E30E946C002B
S11301B040E061E089E30E947D002FE986E891E058
S11301C0215080409040E1F700C000006FEF86E3CB
S11301D00E9479002FE986E891E021508040904008
S11301E0E1F700C0000060E086E30E94790060E06F
S11301F080E30E949A00882329F262E089E30E9446
S11302006C002FE986E891E0215080409040E1F7AE
S113021000C0000062E089E30E945E002FE986E8E6
S113022091E0215080409040E1F700C00000AACF47
S1070230F894FFCF6C
S9030000FC
